:020000040000FA
:100000008A110A1208280000000000000000000009
:10001000283084005830A0008001840AA00B0C28EE
:1000200050309500C330960000308E0000308F00B5
:10003000013090000B309700831686309F008312AA
:10004000003085008316FF30850083120030860063
:100050008316FC3086008312003087008316FF3041
:10006000870083120C1D32280C116400A914A918F2
:100070002915A91C2911291D522801302B02031909
:100080004828A00020092B05A006A01B4D285128B8
:100090008F302A02031C4D285128AA0F5028AB0A82
:1000A000291156280030AA000030AB002919A915E3
:1000B000291DA911A9182915A91C2911A91D6128F3
:1000C000291129192916291D2912A9182915A91C30
:1000D0002911291D802802302D0203197628A0003D
:1000E00020092D05A006A01B7B287F2857302C0255
:1000F000031C7B287F28AC0F7E28AD0A2911842899
:100100000030AC000030AD002919A916291DA91234
:10011000A9182915A91C2911A9198F282911A91E67
:100120009228291129190614291D0610A918291524
:10013000A91C2911291DB12804302F020319A72851
:10014000A00020092F05A006A01BAC28B028AF30C6
:100150002E02031CAC28B028AE0FAF28AF0A29111D
:10016000B5280030AE000030AF0029192917291D2D
:100170002913A9182915A91C2911061CC028291101
:10018000291EC3282911291FC62829112919A91791
:10019000291DA913A9182915A91C2911291DE5280C
:1001A000063031020319DB28A00020093105A00622
:1001B000A01BE028E4283F303002031CE028E4289C
:1001C000B00FE328B10A2911E9280030B00000304F
:1001D000B10029193214291D3210A9182915A91C9A
:1001E0002911A919F4282911A91AF7282911291B5D
:1001F000FA282911321CFD28291129198614291DD4
:0602000086108A0132287D
:02400E00723FFF
:00000001FF
