:020000040000FA
:100000008A110A1208280000000000000000000009
:10001000283084005830A0008001840AA00B0C28EE
:10002000E83095000330960000308E0000308F00DD
:10003000013090000B3097008316031700308800C2
:1000400083120313831603170030890083120313EE
:10005000003085008316D130850083120030860081
:100060008316C03086008312003087008316CF309D
:1000700087008312003088008316023088008312C4
:10008000003089008316F8308900831283162030EF
:1000900099008312831620309800831290309800C4
:1000A0000C1D50280C116400A914A9182915A91CAD
:1000B0002911291D702827302B0203196628A0005A
:1000C00020092B05A006A01B6B286F280F302A02E1
:1000D000031C6B286F28AA0F6E28AB0A29117428FD
:1000E0000030AA000030AB002919A915291DA9115B
:1000F000A9182915A91C2911291D93282E302D0274
:1001000003198928A00020092D05A006A01B8E2810
:100110009228DF302C02031C8E289228AC0F9128E5
:10012000AD0A291197280030AC000030AD00291924
:100130002916291D2912A9182915A91C2911A9193F
:10014000A2282911291EA5282911A9122919291720
:10015000291D2913291BA917291FA913291FB128F4
:10016000A91629192917291D2913291B2E14291FFE
:100170002E10291FBC28A91629192917291D291352
:10018000291BAE14291FAE10291FC728A916A91AAA
:100190002915A91E2911A9182915A91C2911291DDC
:1001A000E628753030020319DC28A000200930054C
:1001B000A006A01BE128E5282F302F02031CE12810
:1001C000E528AF0FE428B00A2911EA280030AF0073
:1001D0000030B00029192E15291D2E11A918291536
:1001E000A91C2911291D0929793032020319FF2878
:1001F000A00020093205A006A01B042908291730F9
:100200003102031C04290829B10F0729B20A291158
:100210000D290030B1000030B2002919AE15291D9A
:10022000AE11A9182915A91C29112E19182929114F
:10023000AE1D1B29291129192E16291D2E12A918A8
:100240002915A91C2911AE1A26292911291D3D2974
:100250000730340203193329A00020093405A00611
:10026000A01B38293C29CF303302031C38293C29F4
:10027000B30F3B29B40A291141290030B3000030E3
:10028000B40029192E17291D2E13A9182915A91CE8
:100290002911AE1A4C2929112E1F4F292911AE13ED
:1002A00029193514291D35103518B514351CB5100C
:1002B000351C5B29AE1729193514291D3510351841
:1002C0003515351C3511351C6629AE17291935141D
:1002D000291D35103518B515351CB511351C71297A
:1002E000AE17AE1B2915AE1F2911A9182915A91C77
:1002F0002911351A7C292911B51229193517291DFB
:100300003513351F8529081386290817351F8929B4
:10031000B51629193517291D3513351FA42907309E
:10032000370203199A29A00020093705A006A01B4F
:100330009F29A329CF303602031C9F29A329B60F7A
:10034000A229B70A3513A8290030B6000030B7003B
:10035000351BB517351FB513351FAF29B51629192C
:100360003517291D3513B51FB6293513351FBA2981
:100370008510BB298514351FBE29B516B51A291558
:10038000B51E2911A9182915A91C29113818C92920
:100390002911B81029193815291D3811381DD229ED
:1003A0008813D3298817381DD629B8142919381568
:1003B000291D3811381DF12907303A020319E729A0
:1003C000A00020093A05A006A01BEC29F029CF3097
:1003D0003902031CEC29F029B90FEF29BA0A3811A8
:1003E000F5290030B9000030BA003819B815381DA9
:1003F000B811381DFC29B81429193815291D3811D0
:10040000B81D032A3811381D072A0810082A0814B5
:10041000381D0B2AB814B8182915B81C2911A918A9
:100420002915A91C2911381A162A2911291D1A2A39
:1004300006101B2A0614A9182915A91C2911B81A77
:10044000222A291138132919B817291DB813B81FE2
:100450002B2A86102C2A8614B81F2F2A3817291900
:10046000B817291DB813B81F4A2A06303C020319D1
:10047000402AA00020093C05A006A01B452A492AC5
:10048000D5303B02031C452A492ABB0F482ABC0A27
:10049000B8134E2A0030BB000030BC00B81B3D141E
:1004A000B81F3D10B81F552A38172919B817291D2C
:1004B000B8133D1C5C2AB813BD10B81B3D15B81FFE
:1004C0003D113D1D652A0811662A08153D1D692A42
:1004D000BD14B81B3D15B81F3D113D19BD153D1D7F
:1004E000BD113D1D742ABD14BD18B817BD1CB8132D
:1004F000B81F7B2A38172919B817291DB8133D1AB8
:10050000852A9F30BE000F30BF003D16B81B9D2AC4
:100510000F303F020319932AA00020093F05A006CF
:10052000A01B982A9C2A9F303E02031C982A9C2AD2
:10053000BE0F9B2ABF0AB817A12A0030BE000030A8
:10054000BF00B81EA42AB813B81BBD16B81FBD1231
:10055000B81FAB2A3817381B2915381F2911A918BD
:100560002915A91C2911BD1AB62A29113D132919CB
:10057000BD17291DBD13BD1FD22A03304102031927
:10058000C82AA00020094105A006A01BCD2AD12A17
:10059000E7304002031CCD2AD12AC00FD02AC10A5D
:1005A000BD13D62A0030C0000030C100BD1B42146C
:1005B000BD1F4210BD1FDD2A3D172919BD17291D7A
:1005C000BD13421CE42ABD13BD1BC214BD1FC210C3
:1005D000BD1FEB2A3D172919BD17291DBD13BD1FCE
:1005E000062B0B3044020319FC2AA0002009440505
:1005F000A006A01B012B052BB7304302031C012BC7
:10060000052BC30F042BC40ABD130A2B0030C300F3
:100610000030C400BD1B4215BD1F4211BD1F112B70
:100620003D172919BD17291DBD134219182BBD13DC
:10063000BD1BC215BD1FC211BD1F1F2B3D173D1B8A
:1006400029153D1F2911A9182915A91C2911421A7C
:100650002A2B2911C21229194217291D4213421FA0
:10066000332B0611342B0615421F372BC2162919BE
:100670004217291D4213421F522B0730460203190D
:10068000482BA00020094605A006A01B4D2B512B8E
:10069000CF304502031C4D2B512BC50F502BC60AE2
:1006A0004213562B0030C5000030C600421BC21753
:1006B000421FC213421F5D2BC21629194217291D62
:1006C0004213C21F642B4213421F682B8811692BEF
:1006D0008815421F6C2BC216C21A2915C21E291179
:1006E000A9182915A91C29114718772B2911C710FA
:1006F00029194715291D4711471D802B8611812B6C
:100700008615471D842BC71429194715291D471124
:10071000471D9F2B073049020319952BA000200984
:100720004905A006A01B9A2B9E2BCF304802031C24
:100730009A2B9E2BC80F9D2BC90A4711A32B003063
:10074000C8000030C9004719C715471DC711471D0C
:10075000AA2BC71429194715291D4711C71DB12BED
:100760004711471DB52B0712B62B0716471DB92B8E
:10077000C714C7182915C71C2911A9182915A91CA0
:100780002911471AC42B2911C71229194717291DE6
:100790004713471FCD2B0612CE2B0616471FD12B12
:1007A000C71629194717291D4713471FEC2B073078
:1007B0004B020319E22BA00020094B05A006A01B49
:1007C000E72BEB2BCF304A02031CE72BEB2BCA0F96
:1007D000EA2BCB0A4713F02B0030CA000030CB00C5
:1007E000471BC717471FC713471FF72BC7162919E2
:1007F0004717291D4713C71FFE2B4713471F022CFE
:100800008712032C8716471F062CC716C71A2915EF
:10081000C71E2911A9182915A91C29114C18112C1A
:100820002911CC1029194C15291D4C114C1D1A2CBD
:1008300086121B2C86164C1D1E2CCC1429194C1507
:10084000291D4C114C1D392C07304E0203192F2C39
:10085000A00020094E05A006A01B342C382CCF3058
:100860004D02031C342C382CCD0F372CCE0A4C11E2
:100870003D2C0030CD000030CE004C19CC154C1D65
:10088000CC114C1D442CCC1429194C15291D4C118C
:10089000CC1D4B2C4C114C1D4F2C0812502C081603
:1008A0004C1D532CCC14CC182915CC1C2911A9187B
:1008B0002915A91C29114C122919CC16291DCC1255
:1008C000A91B632CCC12CC1E662C4C162919CC16F5
:1008D000291DCC12B5186D2CCC12CC1E702C4C16C8
:1008E0004C1A29154C1E2911291D782C0911792C17
:1008F0000915A9182915A91C29114C132919CC1758
:10090000291DCC132E18852CCC13CC1F882C4C17EA
:100910002919CC17291DCC1335198F2CCC13CC1FBA
:10092000922C4C174C1B29154C1F2911291D9A2C50
:1009300089109B2C8914A9182915A91C29114F105D
:100940002919CF14291DCF10AE18A72CCF10CF1CFA
:10095000AA2C4F142919CF14291DCF10B519B12C69
:10096000CF10CF1CB42C4F144F1829154F1C291130
:10097000291DBC2C8812BD2C8816A9182915A91C64
:1009800029114F112919CF15291DCF112E1AC92C44
:10099000CF11CF1DCC2C4F152919CF15291DCF11E3
:1009A000BD19D32CCF11CF1DD62C4F152919CF151A
:1009B000291DCF11C218DD2CCF11CF1DE02C4F15F2
:1009C0002919CF15291DCF11C219E72CCF11CF1D21
:1009D000EA2C4F154F1929154F1D2911291DF22CED
:1009E0000910F32C0914A9182915A91C29114F1253
:1009F0002919CF16291DCF12351AFF2CCF12CF1E61
:100A0000022D4F162919CF16291DCF123818092D7E
:100A1000CF12CF1E0C2D4F162919CF16291DCF121C
:100A2000B81A132DCF12CF1E162D4F164F1A291597
:100A30004F1E2911291D1E2D85121F2D8516A9183F
:100A40002915A91C29114F132919CF17291DCF13B7
:100A5000421A2B2DCF13CF1F2E2D4F172919CF1729
:100A6000291DCF134718352DCF13CF1F382D4F1702
:100A70004F1B29154F1F2911291D402D8511412D6F
:100A80008515A9182915A91C291150102919D01448
:100A9000291DD010471A4D2DD010D01C502D5014A8
:100AA0002919D014291DD0104C18572DD010D01C46
:100AB0005A2D501450182915501C2911291D622D2A
:100AC0000511632D0515A9182915A91C2911291D22
:100AD0006D2D5308D1005408D200A9182915A91C5E
:100AE00029110030D5000130D6005609A100520569
:100AF000A0005208A104A109560852020319892D29
:100B0000A105A200220920052104A206A21B8E2D08
:100B10008F2D55085102031C8E2D8F2D2911501138
:100B20002919D015291DD011D01DA52D0030D500B3
:100B30000130D60055085102D100201003182014AE
:100B400056085202D200201CD203D01DA82D5015E9
:100B50002919D015291DD011D0194C14D01D4C10B5
:100B6000D01DB32D501550192915501D2911A91844
:100B70002915A91C29118030D5000030D60056094E
:100B8000A1005205A0005208A104A1095608520272
:100B90000319D32DA105A200220920052104A206D4
:100BA000A21BD82DD92D55085102031CD82DD92DA3
:100BB000291150122919D016291DD012D01EEF2D3F
:100BC0008030D5000030D60055085102D1002010E9
:100BD0000318201456085202D200201CD203D01E43
:100BE000F22D50162919D016291DD012D01A4716E9
:100BF000D01E4712D01EFD2D5016501A2915501E1A
:100C00002911A9182915A91C29114030D500003037
:100C1000D6005609A1005205A0005208A104A1095E
:100C20005608520203191D2EA105A2002209200513
:100C30002104A206A21B222E232E55085102031CBA
:100C4000222E232E291150132919D017291DD01314
:100C5000D01F392E4030D5000030D6005508510243
:100C6000D10020100318201456085202D200201C74
:100C7000D203D01F3C2E50172919D017291DD0138D
:100C8000D01B4714D01F4710D01F472E5017501BA2
:100C90002915501F2911A9182915A91C291120301F
:100CA000D5000030D6005609A1005205A000520818
:100CB000A104A109560852020319672EA105A2003A
:100CC000220920052104A206A21B6C2E6D2E5508B8
:100CD0005102031C6C2E6D2E291157102919D7149F
:100CE000291DD7100E308A000028AB30AB30AB3056
:100CF000AB30AB30AB30AB30AB30AB30AB30AB301C
:100D0000AB30AB30AB30AB30AB30AB30AB30AB300B
:100D1000AB30AB30AB30AB30AB30AB30AB30AB30FB
:100D2000AB30AB30AB30AB30AB30AB30AB30AB30EB
:10100000D71C11282030D5000030D60055085102D9
:10101000D10020100318201456085202D200201CC0
:10102000D203D71C142857142919D714291DD710F7
:10103000D7184216D71C4212D71C1F28571457180E
:101040002915571C2911A9182915A91C2911103077
:10105000D5000030D6005609A1005205A000520864
:10106000A104A1095608520203193F28A105A200B4
:10107000220920052104A206A21B44284528550860
:101080005102031C44284528291157112919D71545
:10109000291DD711D71D5B281030D5000030D60090
:1010A00055085102D100201003182014560852028E
:1010B000D200201CD203D71D5E2857152919D71539
:1010C000291DD711D719B816D71DB812D71D6928F1
:1010D000571557192915571D2911A9182915A91C84
:1010E00029110830D5000030D6005609A10052055C
:1010F000A0005208A104A109560852020319892828
:10110000A105A200220920052104A206A21B8E2807
:101110008F2855085102031C8E288F282911571239
:101120002919D716291DD712D71EA5280830D50092
:101130000030D60055085102D100201003182014A9
:1011400056085202D200201CD203D71EA8285716D8
:101150002919D716291DD712D71A3816D71E3812B3
:10116000D71EB3285716571A2915571E2911A91823
:101170002915A91C29110430D5000030D6005609C4
:10118000A1005205A0005208A104A109560852026C
:101190000319D328A105A200220920052104A206D3
:1011A000A21BD828D92855085102031CD828D928B1
:1011B000291157132919D717291DD713D71FEF281E
:1011C0000430D5000030D60055085102D10020105F
:1011D0000318201456085202D200201CD203D71F35
:1011E000F22857172919D717291DD713D71B3814D9
:1011F000D71F3810D71FFD285717571B2915571F02
:101200002911A9182915A91C29110230D50000306F
:10121000D6005609A1005205A0005208A104A10958
:101220005608520203191D29A105A2002209200512
:101230002104A206A21B2229232955085102031CBE
:1012400022292329291158102919D814291DD81009
:10125000D81C39290230D5000030D600550851027B
:10126000D10020100318201456085202D200201C6E
:10127000D203D81C3C2958142919D814291DD81078
:10128000D8183516D81C3512D81C472958145818A8
:101290002915581C2911A9182915A91C2911013033
:1012A000D5000030D6005609A1005205A000520812
:1012B000A104A1095608520203196729A105A20039
:1012C000220920052104A206A21B6C296D295508BC
:1012D0005102031C6C296D29291158112919D8159F
:1012E000291DD811D81D83290130D5000030D60022
:1012F00055085102D100201003182014560852023C
:10130000D200201CD203D81D862958152919D815BA
:10131000291DD811D819AE16D81DAE12D81D912985
:10132000581558192915581D2911A9182915A91C2E
:101330002911291DAB2929118C1EAB291A08D900A6
:10134000DA0129159818A7291819A729AB291A080D
:101350001A0818121816291DC729581AC729DB0F91
:10136000B229DC0A00305C020319BD29A000200963
:101370005C05A006A01BC229C32965305B02031CC3
:10138000C229C329C7290030DB000030DC0029193D
:101390005816291D5812A9182915A91C29115B30A6
:1013A000D5000030D60059085502031DDC295A0823
:1013B0005602031DDC29DD292911D81229195817D5
:1013C000291D5813581FE8290130DD000030DE00C8
:1013D000581FEB29D81629195817291D5813581FBB
:1013E000F5290030DF000030E000581FF829D8163A
:1013F00029195817291D5813581F022A0030E100D7
:101400000030E200581F052AD81629195817291D3F
:101410005813581F0F2A0030E3000030E400581F13
:10142000122AD81629195817291D5813581F1C2A73
:101430000030E5000030E600581F1F2AD816291991
:101440005817291D5813581F292A0030E70000306B
:10145000E800581F2C2AD81629195817291D581387
:10146000581F362A0030E9000030EA00581F392A98
:10147000D81629195817291D5813581F432A003008
:10148000EB000030EC00581F462AD81629195817CF
:10149000291D5813581F502A0030ED000030EE006F
:1014A000581F532AD816D81A2915D81E2911A91839
:1014B0002915A91C29115D30D5000030D600590826
:1014C0005502031D682A5A085602031D682A692A14
:1014D0002911D81329196F14291D6F106F1C742A34
:1014E0000130DF000030E0006F1C772AD81729197F
:1014F0006F14291D6F106F1C812A0030DD00003031
:10150000DE006F1C842AD81729196F14291D6F104B
:101510006F1C8E2A0030DB000030DC006F1C912A2B
:10152000D817D81B2915D81F2911A9182915A91CA6
:1015300029110130D5000030D6005D085502031D89
:10154000A62A5E085602031DA62AA72A2911EF1013
:1015500029196F15291D6F110230D5000030D600F2
:101560005B085502031DB92A5C085602031DB92AFF
:10157000BA2A6F116F1DC02A5908E1005A08E2000B
:101580006F1DC32AEF1429196F15291D6F1104301F
:10159000D5000030D6005B085502031DD42A5C0834
:1015A0005602031DD42AD52A6F116F1DDB2A590854
:1015B000E3005A08E4006F1DDE2AEF1429196F15A5
:1015C000291D6F110630D5000030D6005B0855028A
:1015D000031DEF2A5C085602031DEF2AF02A6F1143
:1015E0006F1DF62A5908E5005A08E6006F1DF92A12
:1015F000EF1429196F15291D6F110830D50000301F
:10160000D6005B085502031D0A2B5C085602031D19
:101610000A2B0B2B6F11EF116F196F166F1D6F12C5
:101620006F1E162B5908E7005A08E8006F1E192B89
:10163000EF156F196F166F1D6F126F1E2E2B303046
:10164000D5000030D60055086702E70020100318C7
:10165000201456086802E800201CE8036F1E312B96
:10166000EF156F196F166F1D6F126F1E3B2B6708FA
:10167000ED006808EE006F1E3E2BEF15EF196F1599
:10168000EF1D6F116F1D452BEF1429196F15291DC3
:101690006F110930D5000030D6005B085502031DDC
:1016A000562B5C085602031D562B572B6F11EF1259
:1016B0006F196F176F1D6F136F1F622B5908E900A9
:1016C0005A08EA006F1F652BEF166F196F176F1D11
:1016D0006F136F1F7A2B3030D5000030D6005508BD
:1016E0006902E90020100318201456086A02EA0073
:1016F000201CEA036F1F7D2BEF166F196F176F1DEC
:101700006F136F1F872B0030ED000030EE006F1F4E
:101710008A2BEF166F196F176F1D6F136F1FA52B95
:101720000A30D5000030D6006708A0006808A10084
:101730005508A2005608A30010308A0090200B30F4
:101740008A002208F0002308F1006F1FA82BEF1673
:101750006F196F176F1D6F136F1FB92B6D0870070F
:10176000ED002010031820146E087107EE002018F9
:10177000EE0A6F1FBC2BEF166F196F176F1D6F13DB
:101780006F1FCD2B6D086907ED0020100318201482
:101790006E086A07EE002018EE0A6F1FD02BEF16B6
:1017A000EF1A6F15EF1E6F116F1DD72BEF1429194C
:1017B0006F15291D6F110A30D5000030D6005B0867
:1017C0005502031DE82B5C085602031DE82BE92B8C
:1017D0006F11EF136F1972146F1D7210721CF42BBE
:1017E0005908EB005A08EC00721CF72BEF176F1921
:1017F00072146F1D7210721C0C2C3030D50000302A
:10180000D60055086B02EB00201003182014560870
:101810006C02EC00201CEC03721C0F2CEF176F19EC
:1018200072146F1D7210721C192C0030ED00003004
:10183000EE00721C1C2CEF176F1972146F1D7210C2
:10184000721C372C6430D5000030D6006708A00029
:101850006808A1005508A2005608A30010308A00AD
:1018600090200C308A002208F0002308F100721C3E
:101870003A2CEF176F1972146F1D7210721C442CE2
:101880007008ED007108EE00721C472CEF176F19FD
:1018900072146F1D7210721C622C0A30D500003059
:1018A000D6006908A0006A08A1005508A2005608E1
:1018B000A30010308A0090200C308A002208F0002B
:1018C0002308F100721C652CEF176F1972146F1D3D
:1018D0007210721C762C6D087007ED002010031832
:1018E00020146E087107EE002018EE0A721C792C85
:1018F000EF176F1972146F1D7210721C8A2C6D080D
:101900006B07ED002010031820146E086C07EE0022
:101910002018EE0A721C8D2CEF17EF1B6F15EF1FAE
:101920006F116F1D942CEF14EF182915EF1C29115E
:10193000A9182915A91C29110130D5000030D6009D
:101940005F085502031DA92C60085602031DA92C2F
:10195000AA2C29113130D5000030D600610855027B
:10196000031DB72C62085602031DB72CB82C291191
:101970005230D5000030D60065085502031DC52C35
:1019800066085602031DC52CC62C29113230D5001D
:101990000030D60063085502031DD32C640856029C
:1019A000031DD32CD42C2911291DDC2CF218DC2C7E
:1019B0000030F3000030F4002919F214291DF21050
:1019C0007308F5007408F600003074020319EF2C58
:1019D000A00020097405A006A01BF42CF52C0B30E8
:1019E0007302031CF42CF52CF92CFF30F500FF30AA
:1019F000F6007211721DFE2C770899007211831681
:101A00009818042D831272158312721D0B2DFF304E
:101A1000F500FF30F6000030F7000030F8007708DE
:101A20007502031D1B2D78087602031D1B2D5B30EC
:101A3000D5000030D6000130F7000030F8007708FC
:101A40007502031D2B2D78087602031D2B2D3130D6
:101A5000D5000030D6000230F7000030F8007708DB
:101A60007502031D3B2D78087602031D3B2D3B308C
:101A7000D5000030D6000330F7000030F8007708BA
:101A80007502031D4B2D78087602031D4B2D323055
:101A9000D5000030D6000430F7000030F800770899
:101AA0007502031D5B2D78087602031D5B2D3B300C
:101AB000D5000030D6000530F7000030F800770878
:101AC0007502031D6B2D78087602031D6B2D5730B0
:101AD000D5000030D6000630F7000030F800770857
:101AE0007502031D7B2D78087602031D7B2D3B308C
:101AF000D5000030D6000730F7000030F800721132
:101B000077087502031D892D78087602031D892D3B
:101B10007215721DE02D5308F9005408FA00F215F1
:101B20006430F7000030F8007908A0007A08A100BE
:101B30007708A2007808A30010308A00A7200D3093
:101B40008A002008D5002108D6007708A000780870
:101B5000A1005508A2005608A30010308A0090206A
:101B60000D308A002208F7002308F8007708790270
:101B7000F90020100318201478087A02FA00201CBB
:101B8000FA033030F7000030F80055087707D50029
:101B900020100318201456087807D6002018D60AFB
:101BA00077085502031DDF2D78085602031DDF2D2F
:101BB000F21DDE2D2030D5000030D600E02DF211D0
:101BC0000830F7000030F800721177087502031D25
:101BD000EE2D78087602031DEE2D7215721D402E33
:101BE0000A30F7000030F8007908A0007A08A10058
:101BF0007708A2007808A30010308A00A7200D30D3
:101C00008A002008D5002108D6007708A0007808AF
:101C1000A1005508A2005608A30010308A009020A9
:101C20000E308A002208F7002308F80077087902AE
:101C3000F90020100318201478087A02FA00201CFA
:101C4000FA033030F7000030F80055087707D50068
:101C500020100318201456087807D6002018D60A3A
:101C600077085502031D3F2E78085602031D3F2EAC
:101C7000F21D3E2E2030D5000030D600402EF2114D
:101C80000930F7000030F800721177087502031D63
:101C90004E2E78087602031D4E2E7215721D902E60
:101CA0000130F7000030F8007908A0007A08A100A0
:101CB0007708A2007808A30010308A00A7200E3011
:101CC0008A002008D5002108D6007708A0007808EF
:101CD000A1005508A2005608A30010308A009020E9
:101CE0000E308A002208F7002308F80077087902EE
:101CF000F90020100318201478087A02FA00201C3A
:101D0000FA033030F7000030F80055087707D500A7
:101D100020100318201456087807D6002018D60A79
:101D200016308A000028AB30AB30AB30AB30AB3074
:101D3000AB30AB30AB30AB30AB30AB30AB30AB30CB
:101D4000AB30AB30AB30AB30AB30AB30AB30AB30BB
:101D5000AB30AB30AB30AB30AB30AB30AB30AB30AB
:101D6000AB30AB30AB30AB30AB30AB30AB30AB309B
:102000000A30F7000030F80077087502031D102829
:1020100078087602031D10285D30D5000030D60008
:102020000030760203191B28A00020097605A006BF
:10203000A01B2028212800307502031C20282128FD
:1020400030287215721D26285508990072118316C2
:1020500098182C28831272158312F30F3028F40A73
:1020600029110030740203193C28A00020097405CE
:10207000A006A01B412842280B307302031C4128F4
:1020800042282915A9182915A91C29110130D500A4
:102090000030D6005F085502031D53286008560221
:1020A000031D5328542829113130D5000030D600A3
:1020B00061085502031D612862085602031D61284C
:1020C000622829115730D5000030D6006508550226
:1020D000031D6F2866085602031D6F2870282911FA
:1020E0003230D5000030D60063085502031D7D282C
:1020F00064085602031D7D287E282911291D842885
:102100006D08D3006E08D400A9182915A91C29113F
:10211000291D8E280030DF000030E0008A015028A1
:10212000A501A4010310A30CA20C1030A600031CEF
:102130009F282008A4070318A50A2108A507031053
:10214000A50CA40CA30CA20CA60B97280800210830
:102150002306A700A31FB128A209A309A20A0319F5
:10216000A30AA11FB828A009A109A00A0319A10A5E
:10217000A501A40103101130A600A00DA10DA60316
:102180000319D628A40DA50D2208A402031CA5033B
:102190002308A502A51FD4282208A4070318A50A0E
:1021A0002308A5070310BD280314BD28A71F080096
:0C21B000A009A109A00A0319A10A080057
:04400E00E2230006A3
:00000001FF
